:100000001AC029C028C027C026C025C024C023C0CC
:1000100022C021C020C01FC01EC01DC01CC01BC0EC
:1000200098C119C018C017C016C015C014C013C09D
:1000300012C011C010C011241FBECFEFD4E0DEBF2C
:10004000CDBF21E0A0E0B1E001C01D92A230B20717
:10005000E1F7A7D1E2C3D4CFC4D188E2E2D187B11E
:100060008D6087B988B188B98AB18FEF8AB98BB1B1
:100070008BB90895673089F158F4633011F120F499
:100080006130C9F0A8F01AC0653009F1E8F022C06B
:100090006B32A1F130F4693029F110F16A3041F18D
:1000A00033C06B3471F16F3F01F1663469F523C0E1
:1000B00090E49BB92BC099E79BB928C094E29BB907
:1000C00025C090E39BB922C099E19BB91FC092E182
:1000D0009BB91CC092E09BB919C098E79BB916C0A8
:1000E0001BB814C090E19BB911C09FEF9BB90EC023
:1000F00093E09BB90BC09EE89BB908C096E49BB9FE
:1001000005C095E09BB902C090E49BB9813049F0ED
:1001100028F0823049F0833051F00BC088E088B974
:100120000AC085E088B907C081E088B904C018B862
:1001300002C084E088B983EF91E00197F1F700C035
:1001400000000895CF92DF92EF92FF920F931F93DA
:10015000CF93DF93FC01F62E9C01369527953695BB
:100160002795ABE7B4E14DD38C011695079598011F
:10017000ADECBCEC46D3969587959695879596956C
:1001800087959C01220F331F880F991F880F991F95
:10019000880F991F820F931F081B190B9F0131D3E2
:1001A000AC015695479556954795569547959A01B2
:1001B00028D39695879596958795969587959C01D2
:1001C000220F331F880F991F880F991F880F991FBF
:1001D000820F931FEA01C81BD90BCA01880F991F10
:1001E000440F551F440F551F440F551F480F591FEB
:1001F0006F01C41AD50A011106C06FEF80E03ADF23
:10020000C11109C004C0602F80E034DF04C06FEF6B
:1002100081E030DF03C06C2F81E02CDF6C2D82E0A9
:1002200029DF81E0F81651F0F81620F082E0F81688
:1002300061F012C06BE483E01DDF14C06BE283E069
:1002400019DF6AE085E016DF0DC066E483E012DFA7
:100250006AE085E00FDF06C066E483E00BDF6AE05A
:1002600085E008DFDF91CF911F910F91FF90EF9014
:10027000DF90CF90089581E880937C0087E8809399
:100280007A00089581E880937C00EAE7F0E08081BD
:1002900080648083808186FDFDCF8091780090917D
:1002A00079000895E8DF0895CF93C82FEBDF60E071
:1002B00074E0681B790BC13089F018F0C23001F18D
:1002C0003BC080E090E0ACD12AE535EF49EF5EE33A
:1002D00035D2562F472F382F292F35C080E090E098
:1002E0009FD12AE535EF49EF5EE328D223E333E9D6
:1002F00048E853E49CD0562F472F382F292F23C08E
:1003000080E090E08DD12AE535EF49EF5EE316D22B
:1003100023E333E948E853E48AD026E636E646EE9E
:100320005FE30CD220E030E040E052E481D0562F71
:10033000472F382F292F07C080E090E071D1562F2A
:10034000472F382F292F652F742F832F922FCF916E
:1003500008951F920F920FB60F9211242F933F937F
:100360004F935F936F937F938F939F93AF93BF93BD
:10037000EF93FF93809100019091010162E0E2DE32
:10038000FF91EF91BF91AF919F918F917F916F916D
:100390005F914F913F912F910F900FBE0F901F9043
:1003A000189580DF59DE7894C12CD12C7601CEE1EE
:1003B000D0E082E079DF9B01AC01C701B60138D003
:1003C0006B017C012197A9F720E030E040EF51E478
:1003D00093D06B017C01F8D0709301016093000110
:1003E000E6CF219A85B185B984B5826084BD85B593
:1003F000836085BDEEE6F0E08081816080838FEFD1
:1004000087BD88BD81EA809380008BE08093810066
:10041000109289001092880010928B0010928A002E
:10042000089590E090938900809388000895505833
:10043000BB27AA270ED048C139D130F03ED120F0D9
:1004400031F49F3F11F41EF42EC10EF4E095E7FB4A
:1004500024C1E92F4AD180F3BA17620773078407D2
:10046000950718F071F49EF562C10EF4E0950B2E1D
:10047000BA2FA02D0B01B90190010C01CA01A001F6
:100480001124FF27591B99F0593F50F4503E68F151
:100490001A16F040A22F232F342F4427585FF3CF92
:1004A000469537952795A795F0405395C9F77EF463
:1004B0001F16BA0B620B730B840BBAF09150A1F0AC
:1004C000FF0FBB1F661F771F881FC2F70EC0BA0F32
:1004D000621F731F841F48F4879577956795B795BA
:1004E000F7959E3F08F0B3CF9395880F08F09927B2
:1004F000EE0F9795879508950CD0E6C0DED040F0BA
:10050000D5D030F021F45F3F19F0C7C0511110C1B0
:10051000CAC0EBD098F39923C9F35523B1F3951BC7
:10052000550BBB27AA2762177307840738F09F5F14
:100530005F4F220F331F441FAA1FA9F333D00E2E83
:100540003AF0E0E830D091505040E695001CCAF7F0
:1005500029D0FE2F27D0660F771F881FBB1F2617B5
:1005600037074807AB07B0E809F0BB0B802DBF0188
:10057000FF2793585F4F2AF09E3F510568F08DC0CA
:10058000D7C05F3FECF3983EDCF38695779567958F
:10059000B795F7959F5FC9F7880F911D9695879539
:1005A00097F90895E1E0660F771F881FBB1F621758
:1005B00073078407BA0720F0621B730B840BBA0B16
:1005C000EE1F88F7E095089598D088F09F5790F037
:1005D000B92F9927B751A0F0D1F0660F771F881F68
:1005E000991F1AF0BA95C9F712C0B13081F09FD0A7
:1005F000B1E008959CC0672F782F8827B85F39F045
:10060000B93FCCF3869577956795B395D9F73EF4C6
:1006100090958095709561957F4F8F4F9F4F08956E
:10062000E89409C097FB3EF490958095709561958C
:100630007F4F8F4F9F4F9923A9F0F92F96E9BB2742
:100640009395F695879577956795B795F111F8CFBE
:10065000FAF4BB0F11F460FF1BC06F5F7F4F8F4F29
:100660009F4F16C0882311F096E911C0772321F01F
:100670009EE8872F762F05C0662371F096E8862FB7
:1006800070E060E02AF09A95660F771F881FDAF70E
:10069000880F9695879597F9089597F99F6780E851
:1006A00070E060E008959FEF80EC089500240A94C4
:1006B0001616170618060906089500240A9412163D
:1006C0001306140605060895092E0394000C11F470
:1006D000882352F0BB0F40F4BF2B11F460FF04C01D
:1006E0006F5F7F4F8F4F9F4F089557FD9058440F76
:1006F000551F59F05F3F71F04795880F97FB991F81
:1007000061F09F3F79F0879508951216130614063D
:10071000551FF2CF4695F1DF08C0161617061806CA
:10072000991FF1CF86957105610508940895E894A5
:10073000BB2766277727CB0197F908950BD0C4CF45
:10074000B5DF28F0BADF18F0952309F0A6CFABCFBC
:100750001124EECFCADFA0F3959FD1F3950F50E09F
:10076000551F629FF001729FBB27F00DB11D639F63
:10077000AA27F00DB11DAA1F649F6627B00DA11D09
:10078000661F829F2227B00DA11D621F739FB00DAF
:10079000A11D621F839FA00D611D221F749F33271F
:1007A000A00D611D231F849F600D211D822F762FB8
:1007B0006A2F11249F5750408AF0E1F088234AF0B5
:1007C000EE0FFF1FBB1F661F771F881F9150504001
:1007D000A9F79E3F510570F060CFAACF5F3FECF3C1
:1007E000983EDCF3869577956795B795F795E795ED
:1007F0009F5FC1F7FE2B880F911D9695879597F9FE
:100800000895A29FB001B39FC001A39F01D0B29FE2
:0E081000700D811D1124911D0895F894FFCFE5
:00000001FF
